{
  "_format": "hh-sol-artifact-1",
  "contractName": "VoteElectroniqueUpgradeable",
  "sourceName": "contracts/VoteElectroniqueUpgradeable.sol",
  "abi": [
    {
      "inputs": [],
      "name": "AccessControlBadConfirmation",
      "type": "error"
    },
    {
      "inputs": [
        {
          "internalType": "address",
          "name": "account",
          "type": "address"
        },
        {
          "internalType": "bytes32",
          "name": "neededRole",
          "type": "bytes32"
        }
      ],
      "name": "AccessControlUnauthorizedAccount",
      "type": "error"
    },
    {
      "inputs": [],
      "name": "InvalidInitialization",
      "type": "error"
    },
    {
      "inputs": [],
      "name": "NotInitializing",
      "type": "error"
    },
    {
      "anonymous": false,
      "inputs": [
        {
          "indexed": false,
          "internalType": "uint64",
          "name": "version",
          "type": "uint64"
        }
      ],
      "name": "Initialized",
      "type": "event"
    },
    {
      "anonymous": false,
      "inputs": [
        {
          "indexed": false,
          "internalType": "address",
          "name": "participant",
          "type": "address"
        }
      ],
      "name": "ParticipantAjoute",
      "type": "event"
    },
    {
      "anonymous": false,
      "inputs": [
        {
          "indexed": false,
          "internalType": "address",
          "name": "participant",
          "type": "address"
        }
      ],
      "name": "ParticipantSupprime",
      "type": "event"
    },
    {
      "anonymous": false,
      "inputs": [
        {
          "indexed": true,
          "internalType": "uint256",
          "name": "id",
          "type": "uint256"
        },
        {
          "indexed": false,
          "internalType": "string",
          "name": "titre",
          "type": "string"
        }
      ],
      "name": "ResolutionAjoutee",
      "type": "event"
    },
    {
      "anonymous": false,
      "inputs": [
        {
          "indexed": true,
          "internalType": "bytes32",
          "name": "role",
          "type": "bytes32"
        },
        {
          "indexed": true,
          "internalType": "bytes32",
          "name": "previousAdminRole",
          "type": "bytes32"
        },
        {
          "indexed": true,
          "internalType": "bytes32",
          "name": "newAdminRole",
          "type": "bytes32"
        }
      ],
      "name": "RoleAdminChanged",
      "type": "event"
    },
    {
      "anonymous": false,
      "inputs": [
        {
          "indexed": true,
          "internalType": "bytes32",
          "name": "role",
          "type": "bytes32"
        },
        {
          "indexed": true,
          "internalType": "address",
          "name": "account",
          "type": "address"
        },
        {
          "indexed": true,
          "internalType": "address",
          "name": "sender",
          "type": "address"
        }
      ],
      "name": "RoleGranted",
      "type": "event"
    },
    {
      "anonymous": false,
      "inputs": [
        {
          "indexed": true,
          "internalType": "bytes32",
          "name": "role",
          "type": "bytes32"
        },
        {
          "indexed": true,
          "internalType": "address",
          "name": "account",
          "type": "address"
        },
        {
          "indexed": true,
          "internalType": "address",
          "name": "sender",
          "type": "address"
        }
      ],
      "name": "RoleRevoked",
      "type": "event"
    },
    {
      "anonymous": false,
      "inputs": [
        {
          "indexed": true,
          "internalType": "uint256",
          "name": "resolutionId",
          "type": "uint256"
        }
      ],
      "name": "VoteCloture",
      "type": "event"
    },
    {
      "anonymous": false,
      "inputs": [
        {
          "indexed": true,
          "internalType": "uint256",
          "name": "resolutionId",
          "type": "uint256"
        },
        {
          "indexed": false,
          "internalType": "address",
          "name": "voter",
          "type": "address"
        },
        {
          "indexed": false,
          "internalType": "string",
          "name": "voteType",
          "type": "string"
        }
      ],
      "name": "VoteEnregistre",
      "type": "event"
    },
    {
      "inputs": [],
      "name": "DEFAULT_ADMIN_ROLE",
      "outputs": [
        {
          "internalType": "bytes32",
          "name": "",
          "type": "bytes32"
        }
      ],
      "stateMutability": "view",
      "type": "function"
    },
    {
      "inputs": [],
      "name": "PRESIDENT_ROLE",
      "outputs": [
        {
          "internalType": "bytes32",
          "name": "",
          "type": "bytes32"
        }
      ],
      "stateMutability": "view",
      "type": "function"
    },
    {
      "inputs": [],
      "name": "SCRUTATEUR_ROLE",
      "outputs": [
        {
          "internalType": "bytes32",
          "name": "",
          "type": "bytes32"
        }
      ],
      "stateMutability": "view",
      "type": "function"
    },
    {
      "inputs": [],
      "name": "SECRETARY_ROLE",
      "outputs": [
        {
          "internalType": "bytes32",
          "name": "",
          "type": "bytes32"
        }
      ],
      "stateMutability": "view",
      "type": "function"
    },
    {
      "inputs": [
        {
          "internalType": "address",
          "name": "_participant",
          "type": "address"
        }
      ],
      "name": "ajouterParticipant",
      "outputs": [],
      "stateMutability": "nonpayable",
      "type": "function"
    },
    {
      "inputs": [
        {
          "internalType": "string",
          "name": "_titre",
          "type": "string"
        }
      ],
      "name": "ajouterResolution",
      "outputs": [],
      "stateMutability": "nonpayable",
      "type": "function"
    },
    {
      "inputs": [
        {
          "internalType": "address",
          "name": "account",
          "type": "address"
        }
      ],
      "name": "assignerRolePresident",
      "outputs": [],
      "stateMutability": "nonpayable",
      "type": "function"
    },
    {
      "inputs": [
        {
          "internalType": "address",
          "name": "account",
          "type": "address"
        }
      ],
      "name": "assignerRoleScrutateur",
      "outputs": [],
      "stateMutability": "nonpayable",
      "type": "function"
    },
    {
      "inputs": [
        {
          "internalType": "address",
          "name": "account",
          "type": "address"
        }
      ],
      "name": "assignerRoleSecretary",
      "outputs": [],
      "stateMutability": "nonpayable",
      "type": "function"
    },
    {
      "inputs": [
        {
          "internalType": "uint256",
          "name": "_resolutionId",
          "type": "uint256"
        }
      ],
      "name": "cloturerVote",
      "outputs": [],
      "stateMutability": "nonpayable",
      "type": "function"
    },
    {
      "inputs": [
        {
          "internalType": "bytes32",
          "name": "role",
          "type": "bytes32"
        }
      ],
      "name": "getRoleAdmin",
      "outputs": [
        {
          "internalType": "bytes32",
          "name": "",
          "type": "bytes32"
        }
      ],
      "stateMutability": "view",
      "type": "function"
    },
    {
      "inputs": [
        {
          "internalType": "bytes32",
          "name": "role",
          "type": "bytes32"
        },
        {
          "internalType": "address",
          "name": "account",
          "type": "address"
        }
      ],
      "name": "grantRole",
      "outputs": [],
      "stateMutability": "nonpayable",
      "type": "function"
    },
    {
      "inputs": [
        {
          "internalType": "bytes32",
          "name": "role",
          "type": "bytes32"
        },
        {
          "internalType": "address",
          "name": "account",
          "type": "address"
        }
      ],
      "name": "hasRole",
      "outputs": [
        {
          "internalType": "bool",
          "name": "",
          "type": "bool"
        }
      ],
      "stateMutability": "view",
      "type": "function"
    },
    {
      "inputs": [],
      "name": "initialize",
      "outputs": [],
      "stateMutability": "nonpayable",
      "type": "function"
    },
    {
      "inputs": [
        {
          "internalType": "uint256",
          "name": "_resolutionId",
          "type": "uint256"
        }
      ],
      "name": "obtenirResultats",
      "outputs": [
        {
          "internalType": "uint256",
          "name": "pour",
          "type": "uint256"
        },
        {
          "internalType": "uint256",
          "name": "contre",
          "type": "uint256"
        },
        {
          "internalType": "uint256",
          "name": "neutre",
          "type": "uint256"
        }
      ],
      "stateMutability": "view",
      "type": "function"
    },
    {
      "inputs": [
        {
          "internalType": "bytes32",
          "name": "role",
          "type": "bytes32"
        },
        {
          "internalType": "address",
          "name": "callerConfirmation",
          "type": "address"
        }
      ],
      "name": "renounceRole",
      "outputs": [],
      "stateMutability": "nonpayable",
      "type": "function"
    },
    {
      "inputs": [],
      "name": "resolutionCount",
      "outputs": [
        {
          "internalType": "uint256",
          "name": "",
          "type": "uint256"
        }
      ],
      "stateMutability": "view",
      "type": "function"
    },
    {
      "inputs": [
        {
          "internalType": "bytes32",
          "name": "role",
          "type": "bytes32"
        },
        {
          "internalType": "address",
          "name": "account",
          "type": "address"
        }
      ],
      "name": "revokeRole",
      "outputs": [],
      "stateMutability": "nonpayable",
      "type": "function"
    },
    {
      "inputs": [
        {
          "internalType": "bytes4",
          "name": "interfaceId",
          "type": "bytes4"
        }
      ],
      "name": "supportsInterface",
      "outputs": [
        {
          "internalType": "bool",
          "name": "",
          "type": "bool"
        }
      ],
      "stateMutability": "view",
      "type": "function"
    },
    {
      "inputs": [
        {
          "internalType": "address",
          "name": "_participant",
          "type": "address"
        }
      ],
      "name": "supprimerParticipant",
      "outputs": [],
      "stateMutability": "nonpayable",
      "type": "function"
    },
    {
      "inputs": [
        {
          "internalType": "uint256",
          "name": "_resolutionId",
          "type": "uint256"
        },
        {
          "internalType": "string",
          "name": "_voteType",
          "type": "string"
        }
      ],
      "name": "voter",
      "outputs": [],
      "stateMutability": "nonpayable",
      "type": "function"
    },
    {
      "inputs": [
        {
          "internalType": "address",
          "name": "",
          "type": "address"
        }
      ],
      "name": "whitelist",
      "outputs": [
        {
          "internalType": "bool",
          "name": "",
          "type": "bool"
        }
      ],
      "stateMutability": "view",
      "type": "function"
    }
  ],
  "bytecode": "0x608060405234801561001057600080fd5b5061223c806100206000396000f3fe608060405234801561001057600080fd5b50600436106101425760003560e01c80638129fc1c116100b8578063a217fddf1161007c578063a217fddf14610363578063ac549b7114610381578063c73fc9171461039d578063d3b0d0ca146103b9578063d547741f146103d5578063e1a93f71146103f157610142565b80638129fc1c146102c157806381495c42146102cb5780638d08caaa146102e757806391d14854146103035780639b19251a1461033357610142565b80632f2ff15d1161010a5780632f2ff15d146102015780633559cd8a1461021d57806336568abe146102395780633d0f9034146102555780633f12217f146102735780635fcab95b1461028f57610142565b806301ffc9a714610147578063080c2dcb146101775780630f40752514610195578063113a2d7b146101b3578063248a9ca3146101d1575b600080fd5b610161600480360381019061015c9190611517565b61040d565b60405161016e919061155f565b60405180910390f35b61017f610487565b60405161018c9190611593565b60405180910390f35b61019d6104ab565b6040516101aa9190611593565b60405180910390f35b6101bb6104cf565b6040516101c89190611593565b60405180910390f35b6101eb60048036038101906101e691906115da565b6104f3565b6040516101f89190611593565b60405180910390f35b61021b60048036038101906102169190611665565b610521565b005b610237600480360381019061023291906116a5565b610543565b005b610253600480360381019061024e9190611665565b61057f565b005b61025d6105fa565b60405161026a91906116eb565b60405180910390f35b61028d60048036038101906102889190611797565b610600565b005b6102a960048036038101906102a491906117f7565b6109b9565b6040516102b893929190611824565b60405180910390f35b6102c9610a42565b005b6102e560048036038101906102e091906116a5565b610bdd565b005b61030160048036038101906102fc91906116a5565b610d07565b005b61031d60048036038101906103189190611665565b610d43565b60405161032a919061155f565b60405180910390f35b61034d600480360381019061034891906116a5565b610dbc565b60405161035a919061155f565b60405180910390f35b61036b610ddc565b6040516103789190611593565b60405180910390f35b61039b600480360381019061039691906116a5565b610de3565b005b6103b760048036038101906103b2919061185b565b610ef1565b005b6103d360048036038101906103ce91906116a5565b610fad565b005b6103ef60048036038101906103ea9190611665565b610fe9565b005b61040b600480360381019061040691906117f7565b61100b565b005b60007f7965db0b000000000000000000000000000000000000000000000000000000007bffffffffffffffffffffffffffffffffffffffffffffffffffffffff1916827bffffffffffffffffffffffffffffffffffffffffffffffffffffffff19161480610480575061047f82611121565b5b9050919050565b7fa6dbe18090a049b636c949c6d09939d9749e959a0de1cfd085b320e106c9121c81565b7f914ba5d0b62ade0c67f4f9fa98b0278536b4e0acad61a2492ebb72da5883a17a81565b7f24fbea9f50ee2911456d1101fe475319e2098b35337082efe9f0eb2f9c7ceb7281565b6000806104fe61118b565b905080600001600084815260200190815260200160002060010154915050919050565b61052a826104f3565b610533816111b3565b61053d83836111c7565b50505050565b6000801b610550816111b3565b61057a7f914ba5d0b62ade0c67f4f9fa98b0278536b4e0acad61a2492ebb72da5883a17a836111c7565b505050565b6105876112c8565b73ffffffffffffffffffffffffffffffffffffffff168173ffffffffffffffffffffffffffffffffffffffff16146105eb576040517f6697b23200000000000000000000000000000000000000000000000000000000815260040160405180910390fd5b6105f582826112d0565b505050565b60015481565b6000803373ffffffffffffffffffffffffffffffffffffffff1673ffffffffffffffffffffffffffffffffffffffff16815260200190815260200160002060009054906101000a900460ff1661068b576040517f08c379a000000000000000000000000000000000000000000000000000000000815260040161068290611905565b60405180910390fd5b60008311801561069d57506001548311155b6106dc576040517f08c379a00000000000000000000000000000000000000000000000000000000081526004016106d390611971565b60405180910390fd5b60006002600085815260200190815260200160002090508060050160009054906101000a900460ff1615610745576040517f08c379a000000000000000000000000000000000000000000000000000000000815260040161073c906119dd565b60405180910390fd5b8060060160003373ffffffffffffffffffffffffffffffffffffffff1673ffffffffffffffffffffffffffffffffffffffff16815260200190815260200160002060009054906101000a900460ff16156107d4576040517f08c379a00000000000000000000000000000000000000000000000000000000081526004016107cb90611a49565b60405180910390fd5b60018160060160003373ffffffffffffffffffffffffffffffffffffffff1673ffffffffffffffffffffffffffffffffffffffff16815260200190815260200160002060006101000a81548160ff02191690831515021790555060008383604051602001610843929190611aa8565b60405160208183030381529060405280519060200120905060405160200161086a90611b0d565b6040516020818303038152906040528051906020012081036108a55781600201600081548092919061089b90611b51565b9190505550610976565b6040516020016108b490611be5565b6040516020818303038152906040528051906020012081036108ef578160030160008154809291906108e590611b51565b9190505550610975565b6040516020016108fe90611c46565b6040516020818303038152906040528051906020012081036109395781600401600081548092919061092f90611b51565b9190505550610974565b6040517f08c379a000000000000000000000000000000000000000000000000000000000815260040161096b90611ca7565b60405180910390fd5b5b5b847f7b834fb80ed09d6737a2b11ac72ab18163bb375f5d2dfe3700f584ee37c0df8a3386866040516109aa93929190611d14565b60405180910390a25050505050565b600080600080841180156109cf57506001548411155b610a0e576040517f08c379a0000000000000000000000000000000000000000000000000000000008152600401610a0590611971565b60405180910390fd5b6000600260008681526020019081526020016000209050806002015481600301548260040154935093509350509193909250565b6000610a4c6113d2565b905060008160000160089054906101000a900460ff1615905060008260000160009054906101000a900467ffffffffffffffff1690506000808267ffffffffffffffff16148015610a9a5750825b9050600060018367ffffffffffffffff16148015610acf575060003073ffffffffffffffffffffffffffffffffffffffff163b145b905081158015610add575080155b15610b14576040517ff92ee8a900000000000000000000000000000000000000000000000000000000815260040160405180910390fd5b60018560000160006101000a81548167ffffffffffffffff021916908367ffffffffffffffff1602179055508315610b645760018560000160086101000a81548160ff0219169083151502179055505b610b6c6113fa565b610b796000801b336111c7565b508315610bd65760008560000160086101000a81548160ff0219169083151502179055507fc7f505b2f371ae2175ee4913f4499e1f2633a7b5936321eed1cdaeb6115181d26001604051610bcd9190611d9f565b60405180910390a15b5050505050565b6000801b610bea816111b3565b6000808373ffffffffffffffffffffffffffffffffffffffff1673ffffffffffffffffffffffffffffffffffffffff16815260200190815260200160002060009054906101000a900460ff16610c75576040517f08c379a0000000000000000000000000000000000000000000000000000000008152600401610c6c90611e06565b60405180910390fd5b60008060008473ffffffffffffffffffffffffffffffffffffffff1673ffffffffffffffffffffffffffffffffffffffff16815260200190815260200160002060006101000a81548160ff0219169083151502179055507f6368bc62ecfade7dce4d9ab9eafe718b93a05de0d7a8a1b6d8e9bf1514d41ab682604051610cfb9190611e26565b60405180910390a15050565b6000801b610d14816111b3565b610d3e7f24fbea9f50ee2911456d1101fe475319e2098b35337082efe9f0eb2f9c7ceb72836111c7565b505050565b600080610d4e61118b565b905080600001600085815260200190815260200160002060000160008473ffffffffffffffffffffffffffffffffffffffff1673ffffffffffffffffffffffffffffffffffffffff16815260200190815260200160002060009054906101000a900460ff1691505092915050565b60006020528060005260406000206000915054906101000a900460ff1681565b6000801b81565b6000801b610df0816111b3565b600073ffffffffffffffffffffffffffffffffffffffff168273ffffffffffffffffffffffffffffffffffffffff1603610e5f576040517f08c379a0000000000000000000000000000000000000000000000000000000008152600401610e5690611e8d565b60405180910390fd5b60016000808473ffffffffffffffffffffffffffffffffffffffff1673ffffffffffffffffffffffffffffffffffffffff16815260200190815260200160002060006101000a81548160ff0219169083151502179055507fd6cb878a324c5d46d01138ee0d3d78ba8695d78811abfea7d2f492d617a4323a82604051610ee59190611e26565b60405180910390a15050565b6000801b610efe816111b3565b60016000815480929190610f1190611b51565b91905055506000600260006001548152602001908152602001600020905060015481600001819055508383826001019182610f4d9291906120e9565b5060008160050160006101000a81548160ff0219169083151502179055506001547f3d8adc5045217d43f22e9b6e5db96cca11a33fba20666bd1cbcfe852e5b687848585604051610f9f9291906121b9565b60405180910390a250505050565b6000801b610fba816111b3565b610fe47fa6dbe18090a049b636c949c6d09939d9749e959a0de1cfd085b320e106c9121c836111c7565b505050565b610ff2826104f3565b610ffb816111b3565b61100583836112d0565b50505050565b6000801b611018816111b3565b60008211801561102a57506001548211155b611069576040517f08c379a000000000000000000000000000000000000000000000000000000000815260040161106090611971565b60405180910390fd5b60006002600084815260200190815260200160002090508060050160009054906101000a900460ff16156110d2576040517f08c379a00000000000000000000000000000000000000000000000000000000081526004016110c9906119dd565b60405180910390fd5b60018160050160006101000a81548160ff021916908315150217905550827f8b642fa02c0ce055f5bbc8268fb2742db2880cec2f7a30fb5bdba76729579b8460405160405180910390a2505050565b60007f01ffc9a7000000000000000000000000000000000000000000000000000000007bffffffffffffffffffffffffffffffffffffffffffffffffffffffff1916827bffffffffffffffffffffffffffffffffffffffffffffffffffffffff1916149050919050565b60007f02dd7bc7dec4dceedda775e58dd541e08a116c6c53815c0bd028192f7b626800905090565b6111c4816111bf6112c8565b611404565b50565b6000806111d261118b565b90506111de8484610d43565b6112bc57600181600001600086815260200190815260200160002060000160008573ffffffffffffffffffffffffffffffffffffffff1673ffffffffffffffffffffffffffffffffffffffff16815260200190815260200160002060006101000a81548160ff0219169083151502179055506112586112c8565b73ffffffffffffffffffffffffffffffffffffffff168373ffffffffffffffffffffffffffffffffffffffff16857f2f8788117e7eff1d82e926ec794901d17c78024a50270940304540a733656f0d60405160405180910390a460019150506112c2565b60009150505b92915050565b600033905090565b6000806112db61118b565b90506112e78484610d43565b156113c657600081600001600086815260200190815260200160002060000160008573ffffffffffffffffffffffffffffffffffffffff1673ffffffffffffffffffffffffffffffffffffffff16815260200190815260200160002060006101000a81548160ff0219169083151502179055506113626112c8565b73ffffffffffffffffffffffffffffffffffffffff168373ffffffffffffffffffffffffffffffffffffffff16857ff6391f5c32d9c69d2a47ea670b442974b53935d1edc7fd64eb21e047a839171b60405160405180910390a460019150506113cc565b60009150505b92915050565b60007ff0c57e16840df040f15088dc2f81fe391c3923bec73e23a9662efc9c229c6a00905090565b611402611455565b565b61140e8282610d43565b6114515780826040517fe2517d3f0000000000000000000000000000000000000000000000000000000081526004016114489291906121dd565b60405180910390fd5b5050565b61145d611495565b611493576040517fd7e6bcf800000000000000000000000000000000000000000000000000000000815260040160405180910390fd5b565b600061149f6113d2565b60000160089054906101000a900460ff16905090565b600080fd5b600080fd5b60007fffffffff0000000000000000000000000000000000000000000000000000000082169050919050565b6114f4816114bf565b81146114ff57600080fd5b50565b600081359050611511816114eb565b92915050565b60006020828403121561152d5761152c6114b5565b5b600061153b84828501611502565b91505092915050565b60008115159050919050565b61155981611544565b82525050565b60006020820190506115746000830184611550565b92915050565b6000819050919050565b61158d8161157a565b82525050565b60006020820190506115a86000830184611584565b92915050565b6115b78161157a565b81146115c257600080fd5b50565b6000813590506115d4816115ae565b92915050565b6000602082840312156115f0576115ef6114b5565b5b60006115fe848285016115c5565b91505092915050565b600073ffffffffffffffffffffffffffffffffffffffff82169050919050565b600061163282611607565b9050919050565b61164281611627565b811461164d57600080fd5b50565b60008135905061165f81611639565b92915050565b6000806040838503121561167c5761167b6114b5565b5b600061168a858286016115c5565b925050602061169b85828601611650565b9150509250929050565b6000602082840312156116bb576116ba6114b5565b5b60006116c984828501611650565b91505092915050565b6000819050919050565b6116e5816116d2565b82525050565b600060208201905061170060008301846116dc565b92915050565b61170f816116d2565b811461171a57600080fd5b50565b60008135905061172c81611706565b92915050565b600080fd5b600080fd5b600080fd5b60008083601f84011261175757611756611732565b5b8235905067ffffffffffffffff81111561177457611773611737565b5b6020830191508360018202830111156117905761178f61173c565b5b9250929050565b6000806000604084860312156117b0576117af6114b5565b5b60006117be8682870161171d565b935050602084013567ffffffffffffffff8111156117df576117de6114ba565b5b6117eb86828701611741565b92509250509250925092565b60006020828403121561180d5761180c6114b5565b5b600061181b8482850161171d565b91505092915050565b600060608201905061183960008301866116dc565b61184660208301856116dc565b61185360408301846116dc565b949350505050565b60008060208385031215611872576118716114b5565b5b600083013567ffffffffffffffff8111156118905761188f6114ba565b5b61189c85828601611741565b92509250509250929050565b600082825260208201905092915050565b7f4e6f6e206175746f72697365206120766f746572000000000000000000000000600082015250565b60006118ef6014836118a8565b91506118fa826118b9565b602082019050919050565b6000602082019050818103600083015261191e816118e2565b9050919050565b7f5265736f6c7574696f6e20696e6578697374616e746500000000000000000000600082015250565b600061195b6016836118a8565b915061196682611925565b602082019050919050565b6000602082019050818103600083015261198a8161194e565b9050919050565b7f566f74652064656a6120636c6f74757265000000000000000000000000000000600082015250565b60006119c76011836118a8565b91506119d282611991565b602082019050919050565b600060208201905081810360008301526119f6816119ba565b9050919050565b7f566f7573206176657a2064656a6120766f746500000000000000000000000000600082015250565b6000611a336013836118a8565b9150611a3e826119fd565b602082019050919050565b60006020820190508181036000830152611a6281611a26565b9050919050565b600081905092915050565b82818337600083830152505050565b6000611a8f8385611a69565b9350611a9c838584611a74565b82840190509392505050565b6000611ab5828486611a83565b91508190509392505050565b7f706f757200000000000000000000000000000000000000000000000000000000600082015250565b6000611af7600483611a69565b9150611b0282611ac1565b600482019050919050565b6000611b1882611aea565b9150819050919050565b7f4e487b7100000000000000000000000000000000000000000000000000000000600052601160045260246000fd5b6000611b5c826116d2565b91507fffffffffffffffffffffffffffffffffffffffffffffffffffffffffffffffff8203611b8e57611b8d611b22565b5b600182019050919050565b7f636f6e7472650000000000000000000000000000000000000000000000000000600082015250565b6000611bcf600683611a69565b9150611bda82611b99565b600682019050919050565b6000611bf082611bc2565b9150819050919050565b7f6e65757472650000000000000000000000000000000000000000000000000000600082015250565b6000611c30600683611a69565b9150611c3b82611bfa565b600682019050919050565b6000611c5182611c23565b9150819050919050565b7f5479706520646520766f746520696e76616c6964650000000000000000000000600082015250565b6000611c916015836118a8565b9150611c9c82611c5b565b602082019050919050565b60006020820190508181036000830152611cc081611c84565b9050919050565b611cd081611627565b82525050565b6000601f19601f8301169050919050565b6000611cf383856118a8565b9350611d00838584611a74565b611d0983611cd6565b840190509392505050565b6000604082019050611d296000830186611cc7565b8181036020830152611d3c818486611ce7565b9050949350505050565b6000819050919050565b600067ffffffffffffffff82169050919050565b6000819050919050565b6000611d89611d84611d7f84611d46565b611d64565b611d50565b9050919050565b611d9981611d6e565b82525050565b6000602082019050611db46000830184611d90565b92915050565b7f5061727469636970616e74206e6f6e2070726573656e74000000000000000000600082015250565b6000611df06017836118a8565b9150611dfb82611dba565b602082019050919050565b60006020820190508181036000830152611e1f81611de3565b9050919050565b6000602082019050611e3b6000830184611cc7565b92915050565b7f4164726573736520696e76616c69646500000000000000000000000000000000600082015250565b6000611e776010836118a8565b9150611e8282611e41565b602082019050919050565b60006020820190508181036000830152611ea681611e6a565b9050919050565b600082905092915050565b7f4e487b7100000000000000000000000000000000000000000000000000000000600052604160045260246000fd5b7f4e487b7100000000000000000000000000000000000000000000000000000000600052602260045260246000fd5b60006002820490506001821680611f2e57607f821691505b602082108103611f4157611f40611ee7565b5b50919050565b60008190508160005260206000209050919050565b60006020601f8301049050919050565b600082821b905092915050565b600060088302611fa97fffffffffffffffffffffffffffffffffffffffffffffffffffffffffffffffff82611f6c565b611fb38683611f6c565b95508019841693508086168417925050509392505050565b6000611fe6611fe1611fdc846116d2565b611d64565b6116d2565b9050919050565b6000819050919050565b61200083611fcb565b61201461200c82611fed565b848454611f79565b825550505050565b600090565b61202961201c565b612034818484611ff7565b505050565b5b818110156120585761204d600082612021565b60018101905061203a565b5050565b601f82111561209d5761206e81611f47565b61207784611f5c565b81016020851015612086578190505b61209a61209285611f5c565b830182612039565b50505b505050565b600082821c905092915050565b60006120c0600019846008026120a2565b1980831691505092915050565b60006120d983836120af565b9150826002028217905092915050565b6120f38383611ead565b67ffffffffffffffff81111561210c5761210b611eb8565b5b6121168254611f16565b61212182828561205c565b6000601f831160018114612150576000841561213e578287013590505b61214885826120cd565b8655506121b0565b601f19841661215e86611f47565b60005b8281101561218657848901358255600182019150602085019450602081019050612161565b868310156121a3578489013561219f601f8916826120af565b8355505b6001600288020188555050505b50505050505050565b600060208201905081810360008301526121d4818486611ce7565b90509392505050565b60006040820190506121f26000830185611cc7565b6121ff6020830184611584565b939250505056fea2646970667358221220ddf6132854a07d0fddda4b6b6a9891743320393c1e5095c568c74e67ea0dc9cc64736f6c63430008140033",
  "linkReferences": {},
  "deployedLinkReferences": {}
}